{
  "_format": "hh-sol-artifact-1",
  "contractName": "DAOFundingFactory",
  "sourceName": "contracts/DAOFundingFactory.sol",
  "abi": [
    {
      "inputs": [
        {
          "internalType": "address",
          "name": "_masterContractAddress",
          "type": "address"
        }
      ],
      "stateMutability": "nonpayable",
      "type": "constructor"
    },
    {
      "anonymous": false,
      "inputs": [
        {
          "indexed": false,
          "internalType": "address",
          "name": "newInvestmentAddress",
          "type": "address"
        }
      ],
      "name": "InvestmentCreated",
      "type": "event"
    },
    {
      "anonymous": false,
      "inputs": [
        {
          "indexed": true,
          "internalType": "address",
          "name": "previousOwner",
          "type": "address"
        },
        {
          "indexed": true,
          "internalType": "address",
          "name": "newOwner",
          "type": "address"
        }
      ],
      "name": "OwnershipTransferred",
      "type": "event"
    },
    {
      "inputs": [
        {
          "internalType": "uint256",
          "name": "_x",
          "type": "uint256"
        }
      ],
      "name": "createDAOFunding",
      "outputs": [],
      "stateMutability": "nonpayable",
      "type": "function"
    },
    {
      "inputs": [
        {
          "internalType": "uint256",
          "name": "",
          "type": "uint256"
        }
      ],
      "name": "investments",
      "outputs": [
        {
          "internalType": "contract Investment",
          "name": "",
          "type": "address"
        }
      ],
      "stateMutability": "view",
      "type": "function"
    },
    {
      "inputs": [],
      "name": "masterContractAddress",
      "outputs": [
        {
          "internalType": "address",
          "name": "",
          "type": "address"
        }
      ],
      "stateMutability": "view",
      "type": "function"
    },
    {
      "inputs": [],
      "name": "owner",
      "outputs": [
        {
          "internalType": "address",
          "name": "",
          "type": "address"
        }
      ],
      "stateMutability": "view",
      "type": "function"
    },
    {
      "inputs": [],
      "name": "renounceOwnership",
      "outputs": [],
      "stateMutability": "nonpayable",
      "type": "function"
    },
    {
      "inputs": [
        {
          "internalType": "address",
          "name": "_masterContractAddress",
          "type": "address"
        }
      ],
      "name": "setMasterContractAddress",
      "outputs": [],
      "stateMutability": "nonpayable",
      "type": "function"
    },
    {
      "inputs": [
        {
          "internalType": "address",
          "name": "newOwner",
          "type": "address"
        }
      ],
      "name": "transferOwnership",
      "outputs": [],
      "stateMutability": "nonpayable",
      "type": "function"
    }
  ],
  "bytecode": "0x608060405234801561001057600080fd5b50604051610bc8380380610bc883398181016040528101906100329190610176565b61004e61004361009560201b60201c565b61009d60201b60201c565b80600260006101000a81548173ffffffffffffffffffffffffffffffffffffffff021916908373ffffffffffffffffffffffffffffffffffffffff160217905550506101e8565b600033905090565b60008060009054906101000a900473ffffffffffffffffffffffffffffffffffffffff169050816000806101000a81548173ffffffffffffffffffffffffffffffffffffffff021916908373ffffffffffffffffffffffffffffffffffffffff1602179055508173ffffffffffffffffffffffffffffffffffffffff168173ffffffffffffffffffffffffffffffffffffffff167f8be0079c531659141344cd1fd0a4f28419497f9722a3daafe3b4186f6b6457e060405160405180910390a35050565b600081519050610170816101d1565b92915050565b60006020828403121561018857600080fd5b600061019684828501610161565b91505092915050565b60006101aa826101b1565b9050919050565b600073ffffffffffffffffffffffffffffffffffffffff82169050919050565b6101da8161019f565b81146101e557600080fd5b50565b6109d1806101f76000396000f3fe608060405234801561001057600080fd5b506004361061007d5760003560e01c80638da5cb5b1161005b5780638da5cb5b146100c6578063de456384146100e4578063f2fde38b14610100578063fd345c8a1461011c5761007d565b80633471728a146100825780635c17db50146100a0578063715018a6146100bc575b600080fd5b61008a61014c565b60405161009791906107f3565b60405180910390f35b6100ba60048036038101906100b5919061072e565b610172565b005b6100c4610232565b005b6100ce6102ba565b6040516100db91906107f3565b60405180910390f35b6100fe60048036038101906100f99190610757565b6102e3565b005b61011a6004803603810190610115919061072e565b610497565b005b61013660048036038101906101319190610757565b61058f565b604051610143919061080e565b60405180910390f35b600260009054906101000a900473ffffffffffffffffffffffffffffffffffffffff1681565b61017a6105ce565b73ffffffffffffffffffffffffffffffffffffffff166101986102ba565b73ffffffffffffffffffffffffffffffffffffffff16146101ee576040517f08c379a00000000000000000000000000000000000000000000000000000000081526004016101e590610849565b60405180910390fd5b80600260006101000a81548173ffffffffffffffffffffffffffffffffffffffff021916908373ffffffffffffffffffffffffffffffffffffffff16021790555050565b61023a6105ce565b73ffffffffffffffffffffffffffffffffffffffff166102586102ba565b73ffffffffffffffffffffffffffffffffffffffff16146102ae576040517f08c379a00000000000000000000000000000000000000000000000000000000081526004016102a590610849565b60405180910390fd5b6102b860006105d6565b565b60008060009054906101000a900473ffffffffffffffffffffffffffffffffffffffff16905090565b6102eb6105ce565b73ffffffffffffffffffffffffffffffffffffffff166103096102ba565b73ffffffffffffffffffffffffffffffffffffffff161461035f576040517f08c379a000000000000000000000000000000000000000000000000000000000815260040161035690610849565b60405180910390fd5b600061038c600260009054906101000a900473ffffffffffffffffffffffffffffffffffffffff1661069a565b90508073ffffffffffffffffffffffffffffffffffffffff1663b7b0422d836040518263ffffffff1660e01b81526004016103c79190610869565b600060405180830381600087803b1580156103e157600080fd5b505af11580156103f5573d6000803e3d6000fd5b505050506001819080600181540180825580915050600190039060005260206000200160009091909190916101000a81548173ffffffffffffffffffffffffffffffffffffffff021916908373ffffffffffffffffffffffffffffffffffffffff1602179055507f3191a5306c399c1427231a0982a6b4bb09951c87adac64f1afc990590b9a98e18160405161048b91906107f3565b60405180910390a15050565b61049f6105ce565b73ffffffffffffffffffffffffffffffffffffffff166104bd6102ba565b73ffffffffffffffffffffffffffffffffffffffff1614610513576040517f08c379a000000000000000000000000000000000000000000000000000000000815260040161050a90610849565b60405180910390fd5b600073ffffffffffffffffffffffffffffffffffffffff168173ffffffffffffffffffffffffffffffffffffffff161415610583576040517f08c379a000000000000000000000000000000000000000000000000000000000815260040161057a90610829565b60405180910390fd5b61058c816105d6565b50565b6001818154811061059f57600080fd5b906000526020600020016000915054906101000a900473ffffffffffffffffffffffffffffffffffffffff1681565b600033905090565b60008060009054906101000a900473ffffffffffffffffffffffffffffffffffffffff169050816000806101000a81548173ffffffffffffffffffffffffffffffffffffffff021916908373ffffffffffffffffffffffffffffffffffffffff1602179055508173ffffffffffffffffffffffffffffffffffffffff168173ffffffffffffffffffffffffffffffffffffffff167f8be0079c531659141344cd1fd0a4f28419497f9722a3daafe3b4186f6b6457e060405160405180910390a35050565b6000808260601b90506040517f3d602d80600a3d3981f3363d3d373d3d3d363d7300000000000000000000000081528160148201527f5af43d82803e903d91602b57fd5bf3000000000000000000000000000000000060288201526037816000f092505050919050565b6000813590506107138161096d565b92915050565b60008135905061072881610984565b92915050565b60006020828403121561074057600080fd5b600061074e84828501610704565b91505092915050565b60006020828403121561076957600080fd5b600061077784828501610719565b91505092915050565b61078981610895565b82525050565b610798816108d1565b82525050565b60006107ab602683610884565b91506107b6826108f5565b604082019050919050565b60006107ce602083610884565b91506107d982610944565b602082019050919050565b6107ed816108c7565b82525050565b60006020820190506108086000830184610780565b92915050565b6000602082019050610823600083018461078f565b92915050565b600060208201905081810360008301526108428161079e565b9050919050565b60006020820190508181036000830152610862816107c1565b9050919050565b600060208201905061087e60008301846107e4565b92915050565b600082825260208201905092915050565b60006108a0826108a7565b9050919050565b600073ffffffffffffffffffffffffffffffffffffffff82169050919050565b6000819050919050565b60006108dc826108e3565b9050919050565b60006108ee826108a7565b9050919050565b7f4f776e61626c653a206e6577206f776e657220697320746865207a65726f206160008201527f6464726573730000000000000000000000000000000000000000000000000000602082015250565b7f4f776e61626c653a2063616c6c6572206973206e6f7420746865206f776e6572600082015250565b61097681610895565b811461098157600080fd5b50565b61098d816108c7565b811461099857600080fd5b5056fea264697066735822122049fb7d157ea962b1aeef0721fa987cae1209ee2fd4d02a9656d1ae466c96b0c864736f6c63430008020033",
  "linkReferences": {},
  "deployedLinkReferences": {}
}