{
  "_format": "hh-sol-artifact-1",
  "contractName": "Investment",
  "sourceName": "contracts/Investment.sol",
  "abi": [
    {
      "inputs": [
        {
          "internalType": "uint256",
          "name": "_x",
          "type": "uint256"
        }
      ],
      "name": "init",
      "outputs": [],
      "stateMutability": "nonpayable",
      "type": "function"
    },
    {
      "inputs": [
        {
          "internalType": "uint256",
          "name": "_x",
          "type": "uint256"
        }
      ],
      "name": "setX",
      "outputs": [],
      "stateMutability": "nonpayable",
      "type": "function"
    },
    {
      "inputs": [],
      "name": "x",
      "outputs": [
        {
          "internalType": "uint256",
          "name": "",
          "type": "uint256"
        }
      ],
      "stateMutability": "view",
      "type": "function"
    }
  ],
  "bytecode": "0x608060405234801561001057600080fd5b5061032e806100206000396000f3fe608060405234801561001057600080fd5b50600436106100415760003560e01c80630c55699c146100465780634018d9aa14610064578063b7b0422d14610080575b600080fd5b61004e61009c565b60405161005b919061025c565b60405180910390f35b61007e600480360381019061007991906101e1565b6100a2565b005b61009a600480360381019061009591906101e1565b6100ac565b005b60015481565b8060018190555050565b600060019054906101000a900460ff166100d45760008054906101000a900460ff16156100dd565b6100dc610198565b5b61011c576040517f08c379a00000000000000000000000000000000000000000000000000000000081526004016101139061023c565b60405180910390fd5b60008060019054906101000a900460ff16159050801561016c576001600060016101000a81548160ff02191690831515021790555060016000806101000a81548160ff0219169083151502179055505b8160018190555080156101945760008060016101000a81548160ff0219169083151502179055505b5050565b60006101a3306101a9565b15905090565b6000808273ffffffffffffffffffffffffffffffffffffffff163b119050919050565b6000813590506101db816102e1565b92915050565b6000602082840312156101f357600080fd5b6000610201848285016101cc565b91505092915050565b6000610217602e83610277565b915061022282610292565b604082019050919050565b61023681610288565b82525050565b600060208201905081810360008301526102558161020a565b9050919050565b6000602082019050610271600083018461022d565b92915050565b600082825260208201905092915050565b6000819050919050565b7f496e697469616c697a61626c653a20636f6e747261637420697320616c72656160008201527f647920696e697469616c697a6564000000000000000000000000000000000000602082015250565b6102ea81610288565b81146102f557600080fd5b5056fea2646970667358221220840e24d049dbad3acb035a591034df46b3c543335c66c3ee6c9fd4716067df3064736f6c63430008020033",
  "linkReferences": {},
  "deployedLinkReferences": {}
}